:020000040800F2
:100000000020002065070008590700085B0700086A
:1000100000000000000000000000000000000000E0
:100020000000000000000000000000005D07000864
:1000300000000000000000005F07000861070008E2
:10004000B5070008B5070008B5070008B5070008A0
:10005000B5070008B5070008B5070008B507000890
:10006000B5070008B5070008B5070008B507000880
:10007000B5070008B5070008B5070008190700080C
:10008000B5070008B507000800000000F5040008E7
:10009000B5070008B5070008B5070008B507000850
:1000A000B5070008B5070008B5070008B507000840
:1000B000B507000800000000B507000800000000B8
:1000C00010B5064C2378002B07D1054B002B02D02E
:1000D000044800E000BF0123237010BD4000002051
:1000E0000000000000080008044B10B5002B03D0EE
:1000F0000349044800E000BF10BDC04600000000F6
:10010000440000200008000882B0430018180023B3
:10011000019304E0C046C046019B01330193019B5B
:100120008342F7D302B0704770B51420FFF7ECFF9D
:100130000A4CA36980252D022B43A3611420FFF7ED
:10014000E3FFA26980231B061343A3611420FFF77A
:10015000DBFFA3691D43A56170BDC04600080048D0
:1001600010B50400454A91698023DB010B4393617C
:1001700043B2002B46DB9022D205916980231B06F7
:100180000B439361630645D59022D2059169802384
:100190005B010B439361A30644D5394A91698023DF
:1001A0009B000B439361E30643D5354A9169802355
:1001B0005B000B439361FFF7B7FF230740D5902205
:1001C000D205916980231B020B43936163073FD5DE
:1001D0009022D205916980235B010B439361A307B1
:1001E0003ED5274A916980239B000B439361E40726
:1001F0003DD5234A916980235B000B439361FFF750
:1002000093FF10BD9022D205916980231B020B43FE
:100210009361B7E79022D205916980235B050B4378
:100220009361B8E7164A916980239B040B4393615D
:10023000B9E7134A916980235B040B439361BAE7E2
:100240009022D205916980231B060B439361BDE781
:100250009022D205916980235B050B439361BEE731
:10026000074A916980239B040B439361BFE7044ACB
:10027000916980235B040B439361C0E70008004849
:100280000004004870B50500002403E0FFF768FF94
:100290000134E4B2285D0028F8D170BD10B5040027
:1002A000474A91698023DB050B43936143B2002BDE
:1002B00049DB9022D205916980231B060B43936191
:1002C000630648D59022D205916980235B010B43D8
:1002D0009361A30647D53B4A916980239B000B435A
:1002E0009361E30646D5374A916980235B000B434F
:1002F0009361FFF719FF230743D59022D205916937
:1003000080231B020B439361630742D59022D205E1
:10031000916980235B010B439361A30741D5294A6F
:10032000916980239B000B439361E40740D5254AE4
:10033000916980235B000B439361FFF7F5FE224830
:10034000FFF7E2FE10BD9022D205916980231B02C7
:100350000B439361B4E79022D205916980235B053A
:100360000B439361B5E7174A916980239B040B43C4
:100370009361B6E7134A916980235B040B43936151
:10038000B7E79022D205916980231B060B43936146
:10039000BAE79022D205916980235B050B439361F4
:1003A000BBE7084A916980239B040B439361BCE738
:1003B000044A916980235B040B439361BDE7C04607
:1003C0000008004800040048B80B000010B51B4BA3
:1003D0005969802292020A435A6159698022D202E5
:1003E0000A435A615969802212030A435A619022D2
:1003F000D20511688223DB050B431360104A116894
:10040000A023DB020B4313600E4A1168A023DB0517
:100410000B4313600C48FFF777FE3320FFF73EFFD6
:100420003220FFF73BFF0C20FFF738FF2820FFF7B3
:1004300035FF0120FFF732FF10BDC046001002401B
:1004400000040048000800483075000010B5114B4A
:100450005969802292020A435A6159698022D20264
:100460000A435A619023DB051A68FF2082431A6011
:1004700009490A68120C12040A600C68074A2243F0
:100480000A60DA688243DA60DA6855210A43DA6082
:1004900010BDC04600100240000400485555000041
:1004A000104AD16980235B000B43D3610E4B0F4A86
:1004B0009A62FA229200DA621A6901218A431A6169
:1004C000DA680A43DA600A4AC420800013581B0223
:1004D0001B0A802109060B43135080231B03136062
:1004E0007047C04600100240002000407FBB000063
:1004F00000E100E0054B1B69DB0706D503490B69EA
:10050000012293430B61024B1A7070470020004098
:100510005D00002030B5114AD36901210B43D3613E
:100520008023DB050E4A9A62C822DA621A698A437E
:100530001A61DA680A43DA600A48C325AD004259F5
:100540001202120AC02424062243425180221202BF
:1005500002601A680A431A6030BDC04600100240AB
:1005600097B7000000E100E070B5FFF76FFFFFF7FD
:100570002DFF0120FFF792FE5648FFF783FE564CF1
:100580002000FFF7C1FDFFF7C5FF0120FFF786FE42
:100590005248FFF777FE2000FFF7B6FDFFF780FF18
:1005A0004F4A136801218B431360FF2276E04D48C8
:1005B0000178013106330B4003704B4B0021197059
:1005C00070E0474A136801210B4313600120FFF7D5
:1005D00065FE4648FFF756FE4548FFF795FDFF22AA
:1005E00065E03F4A136801218B4313600120FFF748
:1005F00055FE4048FFF746FE3D48FFF785FDFF22C8
:100600005AE0384B00221A700120FFF747FE3A48A3
:10061000FFF738FE3648FFF777FDFF2251E03749F4
:100620004B69374CD20012599343C000025913430F
:10063000344D2E780722961BF600365933434B6112
:100640004B69314E3678F6003659B3432E78921BFB
:10065000D20012591343025913434B612B4B002212
:100660001A700120FFF71AFE8020FFF717FE2848B6
:10067000FFF708FE1B4E3378DB00E3185868FFF7DE
:1006800001FE8120FFF70AFE2248FFF7FBFD2B78D1
:10069000DB00E4186068FFF7F5FD3278124B1B7839
:1006A000012B84D09023DB051B69DB0789D59023C0
:1006B000DB051B699B0794D59023DB051B695B0752
:1006C0009FD5084B18789042A9D1104B1B78002B6E
:1006D000E4D0A4E718080008A08601002808000854
:1006E00000200040600000205D0000203408000869
:1006F000400D0300440800085408000800040048A6
:10070000000000205E0000205F0000205C00002050
:10071000640800086C0800088023DB051B69DB0700
:1007200012D58021C9050B69012293430B61074B48
:100730001A70074B19780722521A06490A7019785D
:10074000013107220A401A707047C0465C00002041
:100750005E0000205F000020FEE7FEE77047704764
:10076000704770470D488546FFF7FBFF0C480D4961
:100770000D4A002302E0D458C4500433C4188C42FC
:10078000F9D30A4A0A4C002301E013600432A24262
:10079000FBD300F011F8FFF7E7FEFEE70020002092
:1007A0000000002040000020BC080008400000209D
:1007B00064000020FEE7000070B500260C4C0D4DD3
:1007C000641BA410A64209D1002600F019F80A4CB7
:1007D0000A4D641BA410A64205D170BDB300EB58AE
:1007E00098470136EEE7B300EB5898470136F2E739
:1007F000B4080008B4080008B8080008B4080008E5
:10080000F8B5C046F8BC08BC9E467047F8B5C0466F
:08081000F8BC08BC9E467047CD
:1008180053797374656D2052656164790000000036
:1008280054494D45522044454D4F000054696D656B
:1008380072205374617274656400000054696D65B8
:10084800722053746F7070656400000052657365A0
:100858007474696E672E2E2E0000000054494D31C5
:10086800343A000054494D323A0000005374617420
:1008780065203000537461746520310053746174CD
:1008880065203200537461746520330053746174B9
:1008980065203400537461746520350053746174A5
:0C08A80065203600537461746520370031
:0408B400E90000084F
:0408B800C100000873
:1008BC000100000074080008020000007C08000819
:1008CC000400000084080008080000008C080008E0
:1008DC001000000094080008200000009C0800088C
:1008EC0040000000A408000880000000AC080008CC
:040000050800076583
:00000001FF
